{
  "contractName": "SampleContract",
  "abi": [
    {
      "inputs": [],
      "stateMutability": "nonpayable",
      "type": "constructor"
    },
    {
      "anonymous": false,
      "inputs": [
        {
          "indexed": false,
          "internalType": "string",
          "name": "bookName",
          "type": "string"
        },
        {
          "indexed": false,
          "internalType": "address",
          "name": "addedBy",
          "type": "address"
        }
      ],
      "name": "BookAdded",
      "type": "event"
    },
    {
      "inputs": [],
      "name": "bookid",
      "outputs": [
        {
          "internalType": "uint256",
          "name": "",
          "type": "uint256"
        }
      ],
      "stateMutability": "view",
      "type": "function",
      "constant": true
    },
    {
      "inputs": [
        {
          "internalType": "uint256",
          "name": "",
          "type": "uint256"
        }
      ],
      "name": "books",
      "outputs": [
        {
          "internalType": "uint256",
          "name": "id",
          "type": "uint256"
        },
        {
          "internalType": "address",
          "name": "bookOwnedBy",
          "type": "address"
        },
        {
          "internalType": "string",
          "name": "bookName",
          "type": "string"
        }
      ],
      "stateMutability": "view",
      "type": "function",
      "constant": true
    },
    {
      "inputs": [
        {
          "internalType": "string",
          "name": "_bookName",
          "type": "string"
        }
      ],
      "name": "addBooks",
      "outputs": [],
      "stateMutability": "nonpayable",
      "type": "function"
    },
    {
      "inputs": [
        {
          "internalType": "uint256",
          "name": "_bookId",
          "type": "uint256"
        }
      ],
      "name": "viewBook",
      "outputs": [
        {
          "internalType": "uint256",
          "name": "",
          "type": "uint256"
        },
        {
          "internalType": "address",
          "name": "",
          "type": "address"
        },
        {
          "internalType": "string",
          "name": "",
          "type": "string"
        }
      ],
      "stateMutability": "view",
      "type": "function",
      "constant": true
    }
  ],
  "bytecode": "0x608060405234801561001057600080fd5b506001600081905550610758806100286000396000f3fe608060405234801561001057600080fd5b506004361061004c5760003560e01c80633c9d54de14610051578063687440461461010c57806376dec57c146101ed578063a487cd1a1461020b575b600080fd5b61010a6004803603602081101561006757600080fd5b810190808035906020019064010000000081111561008457600080fd5b82018360208201111561009657600080fd5b803590602001918460018302840111640100000000831117156100b857600080fd5b91908080601f016020809104026020016040519081016040528093929190818152602001838380828437600081840152601f19601f8201169050808301925050505050505091929192905050506102ec565b005b6101386004803603602081101561012257600080fd5b8101908080359060200190929190505050610483565b604051808481526020018373ffffffffffffffffffffffffffffffffffffffff1673ffffffffffffffffffffffffffffffffffffffff16815260200180602001828103825283818151815260200191508051906020019080838360005b838110156101b0578082015181840152602081019050610195565b50505050905090810190601f1680156101dd5780820380516001836020036101000a031916815260200191505b5094505050505060405180910390f35b6101f5610565565b6040518082815260200191505060405180910390f35b6102376004803603602081101561022157600080fd5b810190808035906020019092919050505061056b565b604051808481526020018373ffffffffffffffffffffffffffffffffffffffff1673ffffffffffffffffffffffffffffffffffffffff16815260200180602001828103825283818151815260200191508051906020019080838360005b838110156102af578082015181840152602081019050610294565b50505050905090810190601f1680156102dc5780820380516001836020036101000a031916815260200191505b5094505050505060405180910390f35b604051806060016040528060005481526020013373ffffffffffffffffffffffffffffffffffffffff1681526020018281525060016000805481526020019081526020016000206000820151816000015560208201518160010160006101000a81548173ffffffffffffffffffffffffffffffffffffffff021916908373ffffffffffffffffffffffffffffffffffffffff16021790555060408201518160020190805190602001906103a092919061067d565b509050506001600054016000819055507f7984f0b1aa1b5583636f2c20e9a44dfc9022c74fc8ea5635255b73be4369ae23813360405180806020018373ffffffffffffffffffffffffffffffffffffffff1673ffffffffffffffffffffffffffffffffffffffff168152602001828103825284818151815260200191508051906020019080838360005b8381101561044557808201518184015260208101905061042a565b50505050905090810190601f1680156104725780820380516001836020036101000a031916815260200191505b50935050505060405180910390a150565b60016020528060005260406000206000915090508060000154908060010160009054906101000a900473ffffffffffffffffffffffffffffffffffffffff1690806002018054600181600116156101000203166002900480601f01602080910402602001604051908101604052809291908181526020018280546001816001161561010002031660029004801561055b5780601f106105305761010080835404028352916020019161055b565b820191906000526020600020905b81548152906001019060200180831161053e57829003601f168201915b5050505050905083565b60005481565b600080606060016000858152602001908152602001600020600001546001600086815260200190815260200160002060010160009054906101000a900473ffffffffffffffffffffffffffffffffffffffff1660016000878152602001908152602001600020600201808054600181600116156101000203166002900480601f0160208091040260200160405190810160405280929190818152602001828054600181600116156101000203166002900480156106695780601f1061063e57610100808354040283529160200191610669565b820191906000526020600020905b81548152906001019060200180831161064c57829003601f168201915b505050505090509250925092509193909250565b828054600181600116156101000203166002900490600052602060002090601f016020900481019282601f106106be57805160ff19168380011785556106ec565b828001600101855582156106ec579182015b828111156106eb5782518255916020019190600101906106d0565b5b5090506106f991906106fd565b5090565b61071f91905b8082111561071b576000816000905550600101610703565b5090565b9056fea2646970667358221220109892e6a1c07568cb4a46eaa5d5a35921a05a4fbfc97d894c0127a42684fc8464736f6c63430006060033",
  "immutableReferences": {},
  "source": "// SPDX-License-Identifier: MIT\npragma solidity ^0.6.6;\n\ncontract SampleContract {\n    uint256 public bookid;\n    struct Book{\n        uint256 id;\n        address bookOwnedBy;\n        string bookName;\n    }\n    mapping(uint256 => Book) public books;\n    event BookAdded(\n        string bookName,\n        address addedBy\n    );\n\n    constructor() public {\n        bookid = 1;\n    }\n    function addBooks(string memory _bookName) public{\n        books[bookid] = Book(\n            bookid,\n            msg.sender,\n            _bookName\n        );\n        bookid = bookid + 1;\n        emit BookAdded(_bookName,msg.sender);\n    }\n    function viewBook(uint256 _bookId) public view returns(uint256,address,string memory){\n        return (books[_bookId].id,books[_bookId].bookOwnedBy,books[_bookId].bookName);\n    }\n\n}",
  "sourcePath": "/Users/lokesh/projects/blockchain/kgsample/plugin-truffle-box/contracts/SampleContract.sol",
  "compiler": {
    "name": "solc",
    "version": "0.6.6+commit.6c089d02.Emscripten.clang"
  },
  "schemaVersion": "3.4.10",
  "updatedAt": "2022-11-07T16:24:06.622Z",
  "networkType": "ethereum",
  "devdoc": {
    "methods": {}
  },
  "userdoc": {
    "methods": {}
  }
}